{
  "_format": "hh-sol-artifact-1",
  "contractName": "Staking",
  "sourceName": "contracts/Staking.sol",
  "abi": [
    {
      "inputs": [
        {
          "internalType": "uint256",
          "name": "_currentEthPrice",
          "type": "uint256"
        }
      ],
      "stateMutability": "payable",
      "type": "constructor"
    },
    {
      "anonymous": false,
      "inputs": [
        {
          "indexed": true,
          "internalType": "address",
          "name": "previousOwner",
          "type": "address"
        },
        {
          "indexed": true,
          "internalType": "address",
          "name": "newOwner",
          "type": "address"
        }
      ],
      "name": "OwnershipTransferred",
      "type": "event"
    },
    {
      "inputs": [
        {
          "internalType": "string",
          "name": "name",
          "type": "string"
        },
        {
          "internalType": "string",
          "name": "symbol",
          "type": "string"
        },
        {
          "internalType": "address",
          "name": "contractAddress",
          "type": "address"
        },
        {
          "internalType": "uint256",
          "name": "usdPrice",
          "type": "uint256"
        },
        {
          "internalType": "uint256",
          "name": "apy",
          "type": "uint256"
        }
      ],
      "name": "addToken",
      "outputs": [],
      "stateMutability": "nonpayable",
      "type": "function"
    },
    {
      "inputs": [
        {
          "internalType": "uint256",
          "name": "apy",
          "type": "uint256"
        },
        {
          "internalType": "uint256",
          "name": "value",
          "type": "uint256"
        },
        {
          "internalType": "uint256",
          "name": "numberDays",
          "type": "uint256"
        }
      ],
      "name": "calculateInterest",
      "outputs": [
        {
          "internalType": "uint256",
          "name": "",
          "type": "uint256"
        }
      ],
      "stateMutability": "pure",
      "type": "function"
    },
    {
      "inputs": [
        {
          "internalType": "uint256",
          "name": "createdDate",
          "type": "uint256"
        }
      ],
      "name": "calculateNumberDays",
      "outputs": [
        {
          "internalType": "uint256",
          "name": "",
          "type": "uint256"
        }
      ],
      "stateMutability": "view",
      "type": "function"
    },
    {
      "inputs": [
        {
          "internalType": "uint256",
          "name": "positionId",
          "type": "uint256"
        }
      ],
      "name": "closePosition",
      "outputs": [],
      "stateMutability": "nonpayable",
      "type": "function"
    },
    {
      "inputs": [],
      "name": "currentPositionId",
      "outputs": [
        {
          "internalType": "uint256",
          "name": "",
          "type": "uint256"
        }
      ],
      "stateMutability": "view",
      "type": "function"
    },
    {
      "inputs": [],
      "name": "currentTokenId",
      "outputs": [
        {
          "internalType": "uint256",
          "name": "",
          "type": "uint256"
        }
      ],
      "stateMutability": "view",
      "type": "function"
    },
    {
      "inputs": [],
      "name": "ethUsdPrice",
      "outputs": [
        {
          "internalType": "uint256",
          "name": "",
          "type": "uint256"
        }
      ],
      "stateMutability": "view",
      "type": "function"
    },
    {
      "inputs": [
        {
          "internalType": "uint256",
          "name": "positionId",
          "type": "uint256"
        }
      ],
      "name": "getPositionById",
      "outputs": [
        {
          "components": [
            {
              "internalType": "uint256",
              "name": "positionId",
              "type": "uint256"
            },
            {
              "internalType": "address",
              "name": "walletAddress",
              "type": "address"
            },
            {
              "internalType": "string",
              "name": "name",
              "type": "string"
            },
            {
              "internalType": "string",
              "name": "symbol",
              "type": "string"
            },
            {
              "internalType": "uint256",
              "name": "createdDate",
              "type": "uint256"
            },
            {
              "internalType": "uint256",
              "name": "apy",
              "type": "uint256"
            },
            {
              "internalType": "uint256",
              "name": "tokenQuantity",
              "type": "uint256"
            },
            {
              "internalType": "uint256",
              "name": "usdValue",
              "type": "uint256"
            },
            {
              "internalType": "uint256",
              "name": "ethValue",
              "type": "uint256"
            },
            {
              "internalType": "bool",
              "name": "open",
              "type": "bool"
            }
          ],
          "internalType": "struct Staking.Position",
          "name": "",
          "type": "tuple"
        }
      ],
      "stateMutability": "view",
      "type": "function"
    },
    {
      "inputs": [],
      "name": "getPositionIdsForAddress",
      "outputs": [
        {
          "internalType": "uint256[]",
          "name": "",
          "type": "uint256[]"
        }
      ],
      "stateMutability": "view",
      "type": "function"
    },
    {
      "inputs": [
        {
          "internalType": "string",
          "name": "tokenSymbol",
          "type": "string"
        }
      ],
      "name": "getToken",
      "outputs": [
        {
          "components": [
            {
              "internalType": "uint256",
              "name": "tokenId",
              "type": "uint256"
            },
            {
              "internalType": "string",
              "name": "name",
              "type": "string"
            },
            {
              "internalType": "string",
              "name": "symbol",
              "type": "string"
            },
            {
              "internalType": "address",
              "name": "contractAddress",
              "type": "address"
            },
            {
              "internalType": "uint256",
              "name": "usdPrice",
              "type": "uint256"
            },
            {
              "internalType": "uint256",
              "name": "ethPrice",
              "type": "uint256"
            },
            {
              "internalType": "uint256",
              "name": "apy",
              "type": "uint256"
            }
          ],
          "internalType": "struct Staking.Token",
          "name": "",
          "type": "tuple"
        }
      ],
      "stateMutability": "view",
      "type": "function"
    },
    {
      "inputs": [],
      "name": "getTokenSymbols",
      "outputs": [
        {
          "internalType": "string[]",
          "name": "",
          "type": "string[]"
        }
      ],
      "stateMutability": "view",
      "type": "function"
    },
    {
      "inputs": [
        {
          "internalType": "uint256",
          "name": "positionId",
          "type": "uint256"
        },
        {
          "internalType": "uint256",
          "name": "newCreatedDate",
          "type": "uint256"
        }
      ],
      "name": "modifyCreatedDate",
      "outputs": [],
      "stateMutability": "nonpayable",
      "type": "function"
    },
    {
      "inputs": [],
      "name": "owner",
      "outputs": [
        {
          "internalType": "address",
          "name": "",
          "type": "address"
        }
      ],
      "stateMutability": "view",
      "type": "function"
    },
    {
      "inputs": [
        {
          "internalType": "address",
          "name": "",
          "type": "address"
        },
        {
          "internalType": "uint256",
          "name": "",
          "type": "uint256"
        }
      ],
      "name": "positionIdsByAddress",
      "outputs": [
        {
          "internalType": "uint256",
          "name": "",
          "type": "uint256"
        }
      ],
      "stateMutability": "view",
      "type": "function"
    },
    {
      "inputs": [
        {
          "internalType": "uint256",
          "name": "",
          "type": "uint256"
        }
      ],
      "name": "positions",
      "outputs": [
        {
          "internalType": "uint256",
          "name": "positionId",
          "type": "uint256"
        },
        {
          "internalType": "address",
          "name": "walletAddress",
          "type": "address"
        },
        {
          "internalType": "string",
          "name": "name",
          "type": "string"
        },
        {
          "internalType": "string",
          "name": "symbol",
          "type": "string"
        },
        {
          "internalType": "uint256",
          "name": "createdDate",
          "type": "uint256"
        },
        {
          "internalType": "uint256",
          "name": "apy",
          "type": "uint256"
        },
        {
          "internalType": "uint256",
          "name": "tokenQuantity",
          "type": "uint256"
        },
        {
          "internalType": "uint256",
          "name": "usdValue",
          "type": "uint256"
        },
        {
          "internalType": "uint256",
          "name": "ethValue",
          "type": "uint256"
        },
        {
          "internalType": "bool",
          "name": "open",
          "type": "bool"
        }
      ],
      "stateMutability": "view",
      "type": "function"
    },
    {
      "inputs": [],
      "name": "renounceOwnership",
      "outputs": [],
      "stateMutability": "nonpayable",
      "type": "function"
    },
    {
      "inputs": [
        {
          "internalType": "string",
          "name": "tokenSymbol",
          "type": "string"
        },
        {
          "internalType": "uint256",
          "name": "tokenAmount",
          "type": "uint256"
        }
      ],
      "name": "stakeToken",
      "outputs": [],
      "stateMutability": "nonpayable",
      "type": "function"
    },
    {
      "inputs": [
        {
          "internalType": "string",
          "name": "",
          "type": "string"
        }
      ],
      "name": "stakedTokens",
      "outputs": [
        {
          "internalType": "uint256",
          "name": "",
          "type": "uint256"
        }
      ],
      "stateMutability": "view",
      "type": "function"
    },
    {
      "inputs": [
        {
          "internalType": "uint256",
          "name": "",
          "type": "uint256"
        }
      ],
      "name": "tokenSymbols",
      "outputs": [
        {
          "internalType": "string",
          "name": "",
          "type": "string"
        }
      ],
      "stateMutability": "view",
      "type": "function"
    },
    {
      "inputs": [
        {
          "internalType": "string",
          "name": "",
          "type": "string"
        }
      ],
      "name": "tokens",
      "outputs": [
        {
          "internalType": "uint256",
          "name": "tokenId",
          "type": "uint256"
        },
        {
          "internalType": "string",
          "name": "name",
          "type": "string"
        },
        {
          "internalType": "string",
          "name": "symbol",
          "type": "string"
        },
        {
          "internalType": "address",
          "name": "contractAddress",
          "type": "address"
        },
        {
          "internalType": "uint256",
          "name": "usdPrice",
          "type": "uint256"
        },
        {
          "internalType": "uint256",
          "name": "ethPrice",
          "type": "uint256"
        },
        {
          "internalType": "uint256",
          "name": "apy",
          "type": "uint256"
        }
      ],
      "stateMutability": "view",
      "type": "function"
    },
    {
      "inputs": [
        {
          "internalType": "address",
          "name": "newOwner",
          "type": "address"
        }
      ],
      "name": "transferOwnership",
      "outputs": [],
      "stateMutability": "nonpayable",
      "type": "function"
    }
  ],
  "bytecode": "0x6080604052600180556001600555604051620030b0380380620030b083398181016040528101906200003291906200016c565b62000052620000466200006060201b60201c565b6200006860201b60201c565b80600281905550506200019e565b600033905090565b60008060009054906101000a900473ffffffffffffffffffffffffffffffffffffffff169050816000806101000a81548173ffffffffffffffffffffffffffffffffffffffff021916908373ffffffffffffffffffffffffffffffffffffffff1602179055508173ffffffffffffffffffffffffffffffffffffffff168173ffffffffffffffffffffffffffffffffffffffff167f8be0079c531659141344cd1fd0a4f28419497f9722a3daafe3b4186f6b6457e060405160405180910390a35050565b600080fd5b6000819050919050565b620001468162000131565b81146200015257600080fd5b50565b60008151905062000166816200013b565b92915050565b6000602082840312156200018557620001846200012c565b5b6000620001958482850162000155565b91505092915050565b612f0280620001ae6000396000f3fe608060405234801561001057600080fd5b50600436106101365760003560e01c8063715018a6116100b8578063a126d6011161007c578063a126d60114610360578063b838ec861461037c578063c1733f68146103ac578063c41cc502146103dc578063ecb39da21461040c578063f2fde38b1461042857610136565b8063715018a6146102c55780638da5cb5b146102cf5780639478ab8c146102ed57806394b308ab1461030b57806399fbab881461032757610136565b80632406b5c0116100ff5780632406b5c0146101fb57806327f706551461022b57806345eae373146102475780634b4ea954146102775780636e7ddea81461029557610136565b80629a9b7b1461013b57806304c2320b1461015957806305b938161461018f57806305e1bd8c146101ad5780631131c8cd146101dd575b600080fd5b610143610444565b6040516101509190611ce9565b60405180910390f35b610173600480360381019061016e9190611e5e565b61044a565b6040516101869796959493929190611f70565b60405180910390f35b6101976105d2565b6040516101a491906120f9565b60405180910390f35b6101c760048036038101906101c29190612147565b6106ab565b6040516101d49190611ce9565b60405180910390f35b6101e56106e7565b6040516101f29190611ce9565b60405180910390f35b6102156004803603810190610210919061219a565b6106ed565b6040516102229190611ce9565b60405180910390f35b610245600480360381019061024091906121c7565b610725565b005b610261600480360381019061025c9190612233565b61074c565b60405161026e9190611ce9565b60405180910390f35b61027f61077d565b60405161028c9190612331565b60405180910390f35b6102af60048036038101906102aa919061219a565b610812565b6040516102bc9190612353565b60405180910390f35b6102cd6108be565b005b6102d76108d2565b6040516102e49190612375565b60405180910390f35b6102f56108fb565b6040516103029190611ce9565b60405180910390f35b610325600480360381019061032091906123f0565b610901565b005b610341600480360381019061033c919061219a565b610b15565b6040516103579a999897969594939291906124c7565b60405180910390f35b61037a6004803603810190610375919061219a565b610ca6565b005b6103966004803603810190610391919061219a565b611046565b6040516103a39190612670565b60405180910390f35b6103c660048036038101906103c19190612692565b611245565b6040516103d39190612782565b60405180910390f35b6103f660048036038101906103f19190611e5e565b611422565b6040516104039190611ce9565b60405180910390f35b610426600480360381019061042191906127a4565b611450565b005b610442600480360381019061043d9190612804565b61191b565b005b60015481565b60048180516020810182018051848252602083016020850120818352809550505050505060009150905080600001549080600101805461048990612860565b80601f01602080910402602001604051908101604052809291908181526020018280546104b590612860565b80156105025780601f106104d757610100808354040283529160200191610502565b820191906000526020600020905b8154815290600101906020018083116104e557829003601f168201915b50505050509080600201805461051790612860565b80601f016020809104026020016040519081016040528092919081815260200182805461054390612860565b80156105905780601f1061056557610100808354040283529160200191610590565b820191906000526020600020905b81548152906001019060200180831161057357829003601f168201915b5050505050908060030160009054906101000a900473ffffffffffffffffffffffffffffffffffffffff16908060040154908060050154908060060154905087565b60606003805480602002602001604051908101604052809291908181526020016000905b828210156106a257838290600052602060002001805461061590612860565b80601f016020809104026020016040519081016040528092919081815260200182805461064190612860565b801561068e5780601f106106635761010080835404028352916020019161068e565b820191906000526020600020905b81548152906001019060200180831161067157829003601f168201915b5050505050815260200190600101906105f6565b50505050905090565b600061016d6127108385876106c091906128c1565b6106ca91906128c1565b6106d4919061294a565b6106de919061294a565b90509392505050565b60055481565b60006018603c808442610700919061297b565b61070a919061294a565b610714919061294a565b61071e919061294a565b9050919050565b61072d61199f565b8060066000848152602001908152602001600020600401819055505050565b6007602052816000526040600020818154811061076857600080fd5b90600052602060002001600091509150505481565b6060600760003373ffffffffffffffffffffffffffffffffffffffff1673ffffffffffffffffffffffffffffffffffffffff16815260200190815260200160002080548060200260200160405190810160405280929190818152602001828054801561080857602002820191906000526020600020905b8154815260200190600101908083116107f4575b5050505050905090565b6003818154811061082257600080fd5b90600052602060002001600091509050805461083d90612860565b80601f016020809104026020016040519081016040528092919081815260200182805461086990612860565b80156108b65780601f1061088b576101008083540402835291602001916108b6565b820191906000526020600020905b81548152906001019060200180831161089957829003601f168201915b505050505081565b6108c661199f565b6108d06000611a1d565b565b60008060009054906101000a900473ffffffffffffffffffffffffffffffffffffffff16905090565b60025481565b61090961199f565b6003858590918060018154018082558091505060019003906000526020600020016000909192909192909192909192509190610946929190611ae9565b506040518060e00160405280600154815260200188888080601f016020809104026020016040519081016040528093929190818152602001838380828437600081840152601f19601f82011690508083019250505050505050815260200186868080601f016020809104026020016040519081016040528093929190818152602001838380828437600081840152601f19601f8201169050808301925050505050505081526020018473ffffffffffffffffffffffffffffffffffffffff16815260200183815260200160025484610a1e919061294a565b81526020018281525060048686604051610a399291906129df565b9081526020016040518091039020600082015181600001556020820151816001019080519060200190610a6d929190611b6f565b506040820151816002019080519060200190610a8a929190611b6f565b5060608201518160030160006101000a81548173ffffffffffffffffffffffffffffffffffffffff021916908373ffffffffffffffffffffffffffffffffffffffff1602179055506080820151816004015560a0820151816005015560c082015181600601559050506001806000828254610b0591906129f8565b9250508190555050505050505050565b60066020528060005260406000206000915090508060000154908060010160009054906101000a900473ffffffffffffffffffffffffffffffffffffffff1690806002018054610b6490612860565b80601f0160208091040260200160405190810160405280929190818152602001828054610b9090612860565b8015610bdd5780601f10610bb257610100808354040283529160200191610bdd565b820191906000526020600020905b815481529060010190602001808311610bc057829003601f168201915b505050505090806003018054610bf290612860565b80601f0160208091040260200160405190810160405280929190818152602001828054610c1e90612860565b8015610c6b5780601f10610c4057610100808354040283529160200191610c6b565b820191906000526020600020905b815481529060010190602001808311610c4e57829003601f168201915b5050505050908060040154908060050154908060060154908060070154908060080154908060090160009054906101000a900460ff1690508a565b3373ffffffffffffffffffffffffffffffffffffffff166006600083815260200190815260200160002060010160009054906101000a900473ffffffffffffffffffffffffffffffffffffffff1673ffffffffffffffffffffffffffffffffffffffff1614610d4a576040517f08c379a0000000000000000000000000000000000000000000000000000000008152600401610d4190612a9a565b60405180910390fd5b6006600082815260200190815260200160002060090160009054906101000a900460ff16610dad576040517f08c379a0000000000000000000000000000000000000000000000000000000008152600401610da490612b06565b60405180910390fd5b60006006600083815260200190815260200160002060090160006101000a81548160ff021916908315150217905550600460066000838152602001908152602001600020600301604051610e019190612bba565b908152602001604051809103902060030160009054906101000a900473ffffffffffffffffffffffffffffffffffffffff1673ffffffffffffffffffffffffffffffffffffffff1663a9059cbb3360066000858152602001908152602001600020600601546040518363ffffffff1660e01b8152600401610e83929190612bd1565b602060405180830381600087803b158015610e9d57600080fd5b505af1158015610eb1573d6000803e3d6000fd5b505050506040513d601f19601f82011682018060405250810190610ed59190612c26565b506006600082815260200190815260200160002060060154600860066000848152602001908152602001600020600301604051610f129190612bba565b90815260200160405180910390206000828254610f2f919061297b565b925050819055506000610f5760066000848152602001908152602001600020600401546106ed565b90506000610f9260066000858152602001908152602001600020600501546006600086815260200190815260200160002060080154846106ab565b905060003373ffffffffffffffffffffffffffffffffffffffff1682604051610fba90612c84565b60006040518083038185875af1925050503d8060008114610ff7576040519150601f19603f3d011682016040523d82523d6000602084013e610ffc565b606091505b5050905080611040576040517f08c379a000000000000000000000000000000000000000000000000000000000815260040161103790612ce5565b60405180910390fd5b50505050565b61104e611bf5565b6006600083815260200190815260200160002060405180610140016040529081600082015481526020016001820160009054906101000a900473ffffffffffffffffffffffffffffffffffffffff1673ffffffffffffffffffffffffffffffffffffffff1673ffffffffffffffffffffffffffffffffffffffff1681526020016002820180546110dd90612860565b80601f016020809104026020016040519081016040528092919081815260200182805461110990612860565b80156111565780601f1061112b57610100808354040283529160200191611156565b820191906000526020600020905b81548152906001019060200180831161113957829003601f168201915b5050505050815260200160038201805461116f90612860565b80601f016020809104026020016040519081016040528092919081815260200182805461119b90612860565b80156111e85780601f106111bd576101008083540402835291602001916111e8565b820191906000526020600020905b8154815290600101906020018083116111cb57829003601f168201915b5050505050815260200160048201548152602001600582015481526020016006820154815260200160078201548152602001600882015481526020016009820160009054906101000a900460ff1615151515815250509050919050565b61124d611c60565b6004838360405161125f9291906129df565b90815260200160405180910390206040518060e00160405290816000820154815260200160018201805461129290612860565b80601f01602080910402602001604051908101604052809291908181526020018280546112be90612860565b801561130b5780601f106112e05761010080835404028352916020019161130b565b820191906000526020600020905b8154815290600101906020018083116112ee57829003601f168201915b5050505050815260200160028201805461132490612860565b80601f016020809104026020016040519081016040528092919081815260200182805461135090612860565b801561139d5780601f106113725761010080835404028352916020019161139d565b820191906000526020600020905b81548152906001019060200180831161138057829003601f168201915b505050505081526020016003820160009054906101000a900473ffffffffffffffffffffffffffffffffffffffff1673ffffffffffffffffffffffffffffffffffffffff1673ffffffffffffffffffffffffffffffffffffffff1681526020016004820154815260200160058201548152602001600682015481525050905092915050565b6008818051602081018201805184825260208301602085012081835280955050505050506000915090505481565b6000600484846040516114649291906129df565b90815260200160405180910390206000015414156114b7576040517f08c379a00000000000000000000000000000000000000000000000000000000081526004016114ae90612d77565b60405180910390fd5b600483836040516114c99291906129df565b908152602001604051809103902060030160009054906101000a900473ffffffffffffffffffffffffffffffffffffffff1673ffffffffffffffffffffffffffffffffffffffff166323b872dd3330846040518463ffffffff1660e01b815260040161153793929190612d97565b602060405180830381600087803b15801561155157600080fd5b505af1158015611565573d6000803e3d6000fd5b505050506040513d601f19601f820116820180604052508101906115899190612c26565b5060405180610140016040528060055481526020013373ffffffffffffffffffffffffffffffffffffffff168152602001600485856040516115cc9291906129df565b908152602001604051809103902060010180546115e890612860565b80601f016020809104026020016040519081016040528092919081815260200182805461161490612860565b80156116615780601f1061163657610100808354040283529160200191611661565b820191906000526020600020905b81548152906001019060200180831161164457829003601f168201915b5050505050815260200184848080601f016020809104026020016040519081016040528093929190818152602001838380828437600081840152601f19601f820116905080830192505050505050508152602001428152602001600485856040516116cd9291906129df565b908152602001604051809103902060060154815260200182815260200182600486866040516116fd9291906129df565b90815260200160405180910390206004015461171991906128c1565b815260200160025483600487876040516117349291906129df565b90815260200160405180910390206004015461175091906128c1565b61175a919061294a565b8152602001600115158152506006600060055481526020019081526020016000206000820151816000015560208201518160010160006101000a81548173ffffffffffffffffffffffffffffffffffffffff021916908373ffffffffffffffffffffffffffffffffffffffff16021790555060408201518160020190805190602001906117e8929190611b6f565b506060820151816003019080519060200190611805929190611b6f565b506080820151816004015560a0820151816005015560c0820151816006015560e0820151816007015561010082015181600801556101208201518160090160006101000a81548160ff021916908315150217905550905050600760003373ffffffffffffffffffffffffffffffffffffffff1673ffffffffffffffffffffffffffffffffffffffff16815260200190815260200160002060055490806001815401808255809150506001900390600052602060002001600090919091909150556001600560008282546118d891906129f8565b9250508190555080600884846040516118f29291906129df565b9081526020016040518091039020600082825461190f91906129f8565b92505081905550505050565b61192361199f565b600073ffffffffffffffffffffffffffffffffffffffff168173ffffffffffffffffffffffffffffffffffffffff161415611993576040517f08c379a000000000000000000000000000000000000000000000000000000000815260040161198a90612e40565b60405180910390fd5b61199c81611a1d565b50565b6119a7611ae1565b73ffffffffffffffffffffffffffffffffffffffff166119c56108d2565b73ffffffffffffffffffffffffffffffffffffffff1614611a1b576040517f08c379a0000000000000000000000000000000000000000000000000000000008152600401611a1290612eac565b60405180910390fd5b565b60008060009054906101000a900473ffffffffffffffffffffffffffffffffffffffff169050816000806101000a81548173ffffffffffffffffffffffffffffffffffffffff021916908373ffffffffffffffffffffffffffffffffffffffff1602179055508173ffffffffffffffffffffffffffffffffffffffff168173ffffffffffffffffffffffffffffffffffffffff167f8be0079c531659141344cd1fd0a4f28419497f9722a3daafe3b4186f6b6457e060405160405180910390a35050565b600033905090565b828054611af590612860565b90600052602060002090601f016020900481019282611b175760008555611b5e565b82601f10611b3057803560ff1916838001178555611b5e565b82800160010185558215611b5e579182015b82811115611b5d578235825591602001919060010190611b42565b5b509050611b6b9190611cb3565b5090565b828054611b7b90612860565b90600052602060002090601f016020900481019282611b9d5760008555611be4565b82601f10611bb657805160ff1916838001178555611be4565b82800160010185558215611be4579182015b82811115611be3578251825591602001919060010190611bc8565b5b509050611bf19190611cb3565b5090565b60405180610140016040528060008152602001600073ffffffffffffffffffffffffffffffffffffffff168152602001606081526020016060815260200160008152602001600081526020016000815260200160008152602001600081526020016000151581525090565b6040518060e00160405280600081526020016060815260200160608152602001600073ffffffffffffffffffffffffffffffffffffffff1681526020016000815260200160008152602001600081525090565b5b80821115611ccc576000816000905550600101611cb4565b5090565b6000819050919050565b611ce381611cd0565b82525050565b6000602082019050611cfe6000830184611cda565b92915050565b6000604051905090565b600080fd5b600080fd5b600080fd5b600080fd5b6000601f19601f8301169050919050565b7f4e487b7100000000000000000000000000000000000000000000000000000000600052604160045260246000fd5b611d6b82611d22565b810181811067ffffffffffffffff82111715611d8a57611d89611d33565b5b80604052505050565b6000611d9d611d04565b9050611da98282611d62565b919050565b600067ffffffffffffffff821115611dc957611dc8611d33565b5b611dd282611d22565b9050602081019050919050565b82818337600083830152505050565b6000611e01611dfc84611dae565b611d93565b905082815260208101848484011115611e1d57611e1c611d1d565b5b611e28848285611ddf565b509392505050565b600082601f830112611e4557611e44611d18565b5b8135611e55848260208601611dee565b91505092915050565b600060208284031215611e7457611e73611d0e565b5b600082013567ffffffffffffffff811115611e9257611e91611d13565b5b611e9e84828501611e30565b91505092915050565b600081519050919050565b600082825260208201905092915050565b60005b83811015611ee1578082015181840152602081019050611ec6565b83811115611ef0576000848401525b50505050565b6000611f0182611ea7565b611f0b8185611eb2565b9350611f1b818560208601611ec3565b611f2481611d22565b840191505092915050565b600073ffffffffffffffffffffffffffffffffffffffff82169050919050565b6000611f5a82611f2f565b9050919050565b611f6a81611f4f565b82525050565b600060e082019050611f85600083018a611cda565b8181036020830152611f978189611ef6565b90508181036040830152611fab8188611ef6565b9050611fba6060830187611f61565b611fc76080830186611cda565b611fd460a0830185611cda565b611fe160c0830184611cda565b98975050505050505050565b600081519050919050565b600082825260208201905092915050565b6000819050602082019050919050565b600082825260208201905092915050565b600061203582611ea7565b61203f8185612019565b935061204f818560208601611ec3565b61205881611d22565b840191505092915050565b600061206f838361202a565b905092915050565b6000602082019050919050565b600061208f82611fed565b6120998185611ff8565b9350836020820285016120ab85612009565b8060005b858110156120e757848403895281516120c88582612063565b94506120d383612077565b925060208a019950506001810190506120af565b50829750879550505050505092915050565b600060208201905081810360008301526121138184612084565b905092915050565b61212481611cd0565b811461212f57600080fd5b50565b6000813590506121418161211b565b92915050565b6000806000606084860312156121605761215f611d0e565b5b600061216e86828701612132565b935050602061217f86828701612132565b925050604061219086828701612132565b9150509250925092565b6000602082840312156121b0576121af611d0e565b5b60006121be84828501612132565b91505092915050565b600080604083850312156121de576121dd611d0e565b5b60006121ec85828601612132565b92505060206121fd85828601612132565b9150509250929050565b61221081611f4f565b811461221b57600080fd5b50565b60008135905061222d81612207565b92915050565b6000806040838503121561224a57612249611d0e565b5b60006122588582860161221e565b925050602061226985828601612132565b9150509250929050565b600081519050919050565b600082825260208201905092915050565b6000819050602082019050919050565b6122a881611cd0565b82525050565b60006122ba838361229f565b60208301905092915050565b6000602082019050919050565b60006122de82612273565b6122e8818561227e565b93506122f38361228f565b8060005b8381101561232457815161230b88826122ae565b9750612316836122c6565b9250506001810190506122f7565b5085935050505092915050565b6000602082019050818103600083015261234b81846122d3565b905092915050565b6000602082019050818103600083015261236d8184611ef6565b905092915050565b600060208201905061238a6000830184611f61565b92915050565b600080fd5b600080fd5b60008083601f8401126123b0576123af611d18565b5b8235905067ffffffffffffffff8111156123cd576123cc612390565b5b6020830191508360018202830111156123e9576123e8612395565b5b9250929050565b600080600080600080600060a0888a03121561240f5761240e611d0e565b5b600088013567ffffffffffffffff81111561242d5761242c611d13565b5b6124398a828b0161239a565b9750975050602088013567ffffffffffffffff81111561245c5761245b611d13565b5b6124688a828b0161239a565b9550955050604061247b8a828b0161221e565b935050606061248c8a828b01612132565b925050608061249d8a828b01612132565b91505092959891949750929550565b60008115159050919050565b6124c1816124ac565b82525050565b6000610140820190506124dd600083018d611cda565b6124ea602083018c611f61565b81810360408301526124fc818b611ef6565b90508181036060830152612510818a611ef6565b905061251f6080830189611cda565b61252c60a0830188611cda565b61253960c0830187611cda565b61254660e0830186611cda565b612554610100830185611cda565b6125626101208301846124b8565b9b9a5050505050505050505050565b61257a81611f4f565b82525050565b612589816124ac565b82525050565b6000610140830160008301516125a8600086018261229f565b5060208301516125bb6020860182612571565b50604083015184820360408601526125d3828261202a565b915050606083015184820360608601526125ed828261202a565b9150506080830151612602608086018261229f565b5060a083015161261560a086018261229f565b5060c083015161262860c086018261229f565b5060e083015161263b60e086018261229f565b5061010083015161265061010086018261229f565b50610120830151612665610120860182612580565b508091505092915050565b6000602082019050818103600083015261268a818461258f565b905092915050565b600080602083850312156126a9576126a8611d0e565b5b600083013567ffffffffffffffff8111156126c7576126c6611d13565b5b6126d38582860161239a565b92509250509250929050565b600060e0830160008301516126f7600086018261229f565b506020830151848203602086015261270f828261202a565b91505060408301518482036040860152612729828261202a565b915050606083015161273e6060860182612571565b506080830151612751608086018261229f565b5060a083015161276460a086018261229f565b5060c083015161277760c086018261229f565b508091505092915050565b6000602082019050818103600083015261279c81846126df565b905092915050565b6000806000604084860312156127bd576127bc611d0e565b5b600084013567ffffffffffffffff8111156127db576127da611d13565b5b6127e78682870161239a565b935093505060206127fa86828701612132565b9150509250925092565b60006020828403121561281a57612819611d0e565b5b60006128288482850161221e565b91505092915050565b7f4e487b7100000000000000000000000000000000000000000000000000000000600052602260045260246000fd5b6000600282049050600182168061287857607f821691505b6020821081141561288c5761288b612831565b5b50919050565b7f4e487b7100000000000000000000000000000000000000000000000000000000600052601160045260246000fd5b60006128cc82611cd0565b91506128d783611cd0565b9250817fffffffffffffffffffffffffffffffffffffffffffffffffffffffffffffffff04831182151516156129105761290f612892565b5b828202905092915050565b7f4e487b7100000000000000000000000000000000000000000000000000000000600052601260045260246000fd5b600061295582611cd0565b915061296083611cd0565b9250826129705761296f61291b565b5b828204905092915050565b600061298682611cd0565b915061299183611cd0565b9250828210156129a4576129a3612892565b5b828203905092915050565b600081905092915050565b60006129c683856129af565b93506129d3838584611ddf565b82840190509392505050565b60006129ec8284866129ba565b91508190509392505050565b6000612a0382611cd0565b9150612a0e83611cd0565b9250827fffffffffffffffffffffffffffffffffffffffffffffffffffffffffffffffff03821115612a4357612a42612892565b5b828201905092915050565b7f596f7520617265206e6f74206f776e6572000000000000000000000000000000600082015250565b6000612a84601183611eb2565b9150612a8f82612a4e565b602082019050919050565b60006020820190508181036000830152612ab381612a77565b9050919050565b7f506f736974696f6e20697320616c72656164792077697468647261776e000000600082015250565b6000612af0601d83611eb2565b9150612afb82612aba565b602082019050919050565b60006020820190508181036000830152612b1f81612ae3565b9050919050565b60008190508160005260206000209050919050565b60008154612b4881612860565b612b5281866129af565b94506001821660008114612b6d5760018114612b7e57612bb1565b60ff19831686528186019350612bb1565b612b8785612b26565b60005b83811015612ba957815481890152600182019150602081019050612b8a565b838801955050505b50505092915050565b6000612bc68284612b3b565b915081905092915050565b6000604082019050612be66000830185611f61565b612bf36020830184611cda565b9392505050565b612c03816124ac565b8114612c0e57600080fd5b50565b600081519050612c2081612bfa565b92915050565b600060208284031215612c3c57612c3b611d0e565b5b6000612c4a84828501612c11565b91505092915050565b600081905092915050565b50565b6000612c6e600083612c53565b9150612c7982612c5e565b600082019050919050565b6000612c8f82612c61565b9150819050919050565b7f5472616e73616374696f6e204661696c65640000000000000000000000000000600082015250565b6000612ccf601283611eb2565b9150612cda82612c99565b602082019050919050565b60006020820190508181036000830152612cfe81612cc2565b9050919050565b7f5468697320746f6b656e206973206e6f7420616c6c6f77656420746f2073746160008201527f6b65210000000000000000000000000000000000000000000000000000000000602082015250565b6000612d61602383611eb2565b9150612d6c82612d05565b604082019050919050565b60006020820190508181036000830152612d9081612d54565b9050919050565b6000606082019050612dac6000830186611f61565b612db96020830185611f61565b612dc66040830184611cda565b949350505050565b7f4f776e61626c653a206e6577206f776e657220697320746865207a65726f206160008201527f6464726573730000000000000000000000000000000000000000000000000000602082015250565b6000612e2a602683611eb2565b9150612e3582612dce565b604082019050919050565b60006020820190508181036000830152612e5981612e1d565b9050919050565b7f4f776e61626c653a2063616c6c6572206973206e6f7420746865206f776e6572600082015250565b6000612e96602083611eb2565b9150612ea182612e60565b602082019050919050565b60006020820190508181036000830152612ec581612e89565b905091905056fea2646970667358221220aa6d1ef40c77cdac45ac96f0b057ad2bbf0a49e08b8fb59a6800757cd72e799064736f6c63430008090033",
  "linkReferences": {},
  "deployedLinkReferences": {}
}